:020000040800F2
:1000000038040020DD010008530D0008F30C00083F
:10001000510D0008E9020008190E00080000000058
:10002000000000000000000000000000570D000864
:10003000EB02000800000000550D0008590D0008F3
:10004000F7010008F7010008F7010008F7010008B0
:10005000F7010008F7010008F7010008F7010008A0
:10006000F7010008F7010008F7010008F701000890
:10007000F7010008F7010008F7010008F701000880
:10008000F7010008F7010008F7010008F701000870
:10009000F7010008F7010008F7010008F701000860
:1000A000F7010008F7010008F7010008F701000850
:1000B000F7010008F7010008F7010008F701000840
:1000C000F7010008F7010008F7010008F701000830
:1000D000F7010008F7010008F7010008F701000820
:1000E000F7010008F7010008F7010008F701000810
:1000F000F7010008F7010008F7010008F701000800
:10010000F7010008F7010008F7010008F7010008EF
:10011000F7010008F7010008F7010008F7010008DF
:10012000F7010008F7010008F7010008F7010008CF
:10013000F70100080000000000000000F7010008BF
:10014000F7010008F7010008F7010008F7010008AF
:10015000F7010008F7010008F7010008F70100089F
:10016000F7010008F7010008F7010008F70100088F
:10017000F7010008F7010008F7010008000000007F
:1001800000000000F701000800000000000000006F
:10019000F70100080000000000000000F70100085F
:1001A000000000000000000000000000F70100084F
:1001B000F7010008F7010008F7010008F70100083F
:1001C000F7010008DFF810D000F07CF80048004785
:1001D000590E0008AFF3008038040020064880471D
:1001E00006480047FEE7FEE7FEE7FEE7FEE7FEE71C
:1001F000FEE7FEE7FEE7FEE7FD0D0008C50100088B
:100200002DE9F05F0546002092469B46884606464B
:10021000814640241BE0284641464746224600F0DE
:1002200041F853465A46C01A914110D31146184618
:10023000224600F028F82D1A67EB01084F462246A7
:100240000120002100F01FF817EB00094E41201E8D
:10025000A4F10104DFDC484631462A464346BDE8A6
:10026000F09FD2B201E000F8012B491EFBD270478B
:100270000022F6E710B513460A4604461946FFF772
:10028000F0FF204610BD202A04DB203A00FA02F1DC
:10029000002070479140C2F1200320FA03F3194374
:1002A00090407047202A04DB203A21FA02F0002116
:1002B000704721FA02F3D040C2F120029140084376
:1002C00019467047064C074D06E0E06840F0010310
:1002D00094E8070098471034AC42F6D3FFF776FF56
:1002E000140F0008340F0008FEE7704770B504468D
:1002F00000F006F90546601C02D00448007804446A
:1003000000F0FEF8401BA042FAD370BD140000209C
:100310002DE9F84FDFF8ACA1002201240AF1040B0B
:1003200003254FF00F090BF1040E00BF0B6804FA10
:1003300002F63340B3426ED10F7907F00307012F65
:1003400001D0022F16D187684FEA420805FA08FC4F
:1003500027EA0C07D1F80CC00CFA08FC4CEA070C91
:10036000C0F808C04768B7430E79C6F30016964038
:100370003E4346600E79F643B6070AD0C6684FEA98
:10038000420C05FA0CF7BE438F6807FA0CF73743A7
:10039000C7600E7906F00306022E10D1D60800EBD6
:1003A0008608D8F8206057074FEAD76C09FA0CF78F
:1003B000BE430F6907FA0CF73743C8F82070066888
:1003C0004FEA420C05FA0CF7BE430F7907F003071A
:1003D00007FA0CF7374307604E6816F4403F6BD0BE
:1003E000394E376847F480473760366822F0030794
:1003F00006F480460096354E07EB060CDCF80868DC
:1004000097074FEA177809FA08F7BE43304FB8420A
:1004100002D100271FE04FE02E4FB84201D1012743
:1004200019E02D4FB84201D1022714E02B4FB842FA
:1004300001D103270FE02A4FB84201D104270AE077
:10044000284FB84201D1052705E0274FB84201D116
:10045000062700E0072707FA08F73743CCF80878A3
:10046000DAF800605746D1F804C09E435FEACC3CFE
:1004700000D51E433E60DBF800605F46D1F804C043
:100480009E435FEA8C3C00D51E433E60DEF8006070
:100490007746D1F804C09E435FEACC2C00D51E43BA
:1004A0003E60084F0C373E68D1F804C09E435FEAB7
:1004B0008C2C00D51E433E60521C102AFFF436AF30
:1004C000BDE8F88F003C0140443802400030014054
:1004D000000002400004024000080240000C0240FC
:1004E0000010024000140240001802400069084059
:1004F00000D0012070470AB1816170470904FBE711
:10050000014880687047000014000020024881689C
:100510000278114481607047140000200B4810B528
:10052000016841F400710160016841F4806101607B
:10053000016841F480710160032000F063F800203D
:1005400000F006F800F024F8002010BD003C024046
:1005500070B50D4D04464FF47A712878B1FBF0F078
:100560000A490968B1FBF0F000F046FB48B9102CCD
:1005700007D200222146501E00F024F800206C60B3
:1005800070BD012070BD000014000020200000207C
:100590000B4882B0016841F480410160006800F4BA
:1005A000804000900648001F016841F080510160C2
:1005B000006800F080500090072002B000F022B8E0
:1005C00044380240F0B40E4B1B680C46C3F30223C0
:1005D000C3F10705042D00D90425191D072901D2EF
:1005E000002300E0DB1E012606FA05F1491E21402A
:1005F00099409E40761E16403143F0BC00F00DBC81
:100600000CED00E0064900F0070208684FF6FF0312
:10061000184040EA0220034A104308607047000077
:100620000CED00E00000FA052DE9F84317480168D9
:1006300041F0805101600068154F00F080500126A4
:1006400000903E64FFF75CFF05464FF47A78114C4A
:1006500005E000BFFFF754FF401B40450DD8606820
:10066000C003F7D57E64FFF74BFF0546464607E01B
:10067000FFF746FF401BB04202D90320BDE8F883D4
:1006800060688003F4D50020F8E70000403802409D
:1006900000000E42007000402DE9F0470E460500B4
:1006A00065D0DFF81481D8F80000F7B200F00F0031
:1006B000B04207D288F80070D8F8000000F00F00B0
:1006C000B04254D128683D4C810712D5400703D56C
:1006D000206840F4E05020602878000703D52068A7
:1006E00040F4604020602068A96820F0F0000843D2
:1006F00020602878C0072DD0304968680839012863
:1007000012D0022813D0032811D0096889070029C4
:100710002DDA216821F0030101432160FFF7F0FE8B
:10072000814641F2883A0EE009688903EFE70968DB
:100730008901ECE7FFF7E4FEA0EB0901514502D97E
:100740000320BDE8F0872068696800F00C00B0EB7A
:10075000810FEFD1D8F80010404601F00F01B142EF
:1007600007D90770006800F00F00B04201D00120E7
:10077000E7E72878400705D52068E96820F4E050CD
:10078000084320602878000706D52068296920F4EE
:10079000604040EAC100206000F018F82168084A73
:1007A000C1F30311515CC84006490860064800685F
:1007B000FFF7CEFE0020C4E7003C024008380240AC
:1007C000040F00082000002018000020224810B567
:1007D000006810F00C02214815D04110042A11D0F5
:1007E0001D4C241F082A0FD00C2A0CD12268236824
:1007F00002F03F025B0221D52068C0F38810A0FB05
:10080000010120E0084610BD2268236802F03F0283
:100810005B0205D52068C0F38810A0FB010104E04D
:100820002168C1F38811A1FB00010023FFF7E8FC58
:100830002168C1F30141491C49000AE02168C1F364
:100840008811A1FB00010023FFF7DAFC2168C1F346
:100850000271B0FBF1F010BD083802400024F40032
:100860002DE9F84F04007DD0DFF878B32078ABF1A4
:100870000407C007A7F1040550D0DBF80010584664
:10088000C1F3810101290FD00168C1F3810102295F
:1008900002D13968490207D40068C0F381000328F7
:1008A00009D13868400206D52868800336D56068CB
:1008B0000028D8D032E06068B0F5803F10D0B0F5A5
:1008C000A02F286810D020F480302860286820F4F9
:1008D000802028606068A0B1FFF712FE06460CE099
:1008E000286840F48030F4E740F480202860F7E77F
:1008F000FFF706FE801B642876D828688003F7D5AA
:100900000CE0FFF7FDFD064605E000BFFFF7F8FD30
:10091000801B6428F0D828688003F7D42078DFF89B
:10092000C89280074FF0000A44D5DBF80010584603
:1009300011F00C0F0FD00168C1F38101022902D11F
:100940003968490207D50068C0F3810003280AD13D
:100950003868400207D42868800715D5E068012868
:1009600000D111E03AE1E068B0B10120C9F800001F
:10097000FFF7C6FD064604E0FFF7C2FD801B022814
:10098000BAD828688007F7D52868216920F0F800D0
:1009900040EAC10028600DE0C9F800A0FFF7B0FDF3
:1009A000064604E0FFF7ACFD801B02281CD828682F
:1009B0008007F7D42078000727D5DFF828828B48F6
:1009C000616908F16C0881B101210160FFF798FDB0
:1009D000064604E0FFF794FD801B022804D8D8F8EF
:1009E00000008007F6D510E089E0C0F800A0FFF70E
:1009F00087FD064605E000BFFFF782FD801B022849
:100A00007DD8D8F800008007F6D42078400769D553
:100A100074484FF0000838300068C0000BD47148AB
:100A20003830016841F08051016000684FF00108E2
:100A300000F0805000906E4E3068C00511D43068D0
:100A400040F480703060FFF75BFD009006E000BF6F
:100A5000FFF756FD0099401A022850D83068C005AB
:100A6000F6D5604EA068683601280FD0052830689A
:100A700010D020F001003060306820F004003060B9
:100A8000A068B8B1FFF73CFD00900FE0306840F07F
:100A90000100F4E740F004003060F7E7FFF730FDB5
:100AA0000099411A41F28830814264D83068800749
:100AB000F4D50EE0FFF724FD009007E0FFF720FDDE
:100AC0000099411A41F28830814254D83068800739
:100AD000F4D4B8F1000F05D042483830016821F055
:100AE00080510160A069A8B3DBF80010C1F3810157
:100AF000022947D00228C9F860A005D000E03AE0FA
:100B0000FFF7FEFC044639E0FFF7FAFC064604E076
:100B1000FFF7F6FC801B02282DD828688001F7D447
:100B2000F4E907010843E168324A490802EB014150
:100B3000A26841EA82110843217C40EA0160217DDC
:100B400040EA017038600120C9F86000FFF7D8FC66
:100B5000044606E044E000BFFFF7D2FC001B022879
:100B600009D828688001F7D53AE000BFFFF7C8FC34
:100B7000001B022802D90320BDE8F88F28688001F5
:100B8000F4D42DE00128F7D03868E26900F4800140
:100B9000914223D1226A00F03F0191421ED147F6D3
:100BA000C071626A0140B1EB821F17D1A26A4FF097
:100BB000FF3300F4403103EB5202B1EB024F0DD191
:100BC00094F82C2000F07061B1EB026F06D194F81C
:100BD000301000F0E040B0EB017F01D00120CBE706
:100BE0000020C9E70838024000004742800E474213
:100BF000007000400000FFFF10B5401EB0F1807F84
:100C000001D3012010BD4FF0E02460610F21601777
:100C100000F003F90020A06107202061002010BD32
:100C20002DE9F04385B01FFA82F84FF00109002644
:100C3000CDF80080CDE901960C4605461746694679
:100C40000396FFF765FB380C8DE8410220466946A4
:100C50000396FFF75DFB284601224146FFF74BFC58
:100C60003220FFF743FB204600224146FFF743FCBA
:100C700005B0BDE8F0832DE9F05F0446DDF828906B
:100C80000E4690469B4600254FEA124A3046514692
:100C9000FFF72CFC0128F9D000271FFA88F820461E
:100CA00001224146FFF727FC6D0030465146FFF711
:100CB0001DFC00B16D1C204600224146FFF71BFCC5
:100CC0007F1CFFB2182FEAD300260AE0204601223B
:100CD0004146FFF710FC204600224146FFF70BFC7F
:100CE000761CB145F2DC85F40000A0EB0B00BDE8FA
:100CF000F09FFEE730B587B014216846FFF7B8FAD9
:100D000011480024016841F080010160016801F090
:100D100080010591016841F00101016000680B4DFF
:100D200000F0010005902246A0212846FFF7E3FBD2
:100D3000A02000900120CDE90104694628460394D3
:100D4000FFF7E6FA07B030BD30380240000002403D
:100D5000FEE7FEE770477047FFF7D8BB30B593B0AA
:100D600034216846FFF784FA14210DA8FFF780FAB2
:100D700020480025016841F080510160006800F0C2
:100D8000805012901C48016841F4404101600068A5
:100D9000022400F4404012900120009000040190D1
:100DA0008001CDE9064004200890B420CDE9090473
:100DB0000B9468460C94FFF753FD08B172B6FEE73A
:100DC000FFF732FC08B172B6FEE70DA90F2081E8EB
:100DD00031004FF4A05010904FF480501190052135
:100DE0000DA8FFF759FC002801D072B6FEE713B03A
:100DF00030BD0000403802400070004005480168E6
:100E000041F47001016003494FF0006080390860CF
:100E10007047000088ED00E0FEE70907090E002892
:100E200004DB00F1E02080F80014704700F00F00B0
:100E300000F1E02080F8141D704702E008C8121F7E
:100E400008C1002AFAD170477047002001E001C1B3
:100E5000121F002AFBD1704708B5FFF75FFBFFF7B1
:100E600049FFFFF77BFF224C80212248216120228D
:100E700060606281206021811F4BE3600091014628
:100E8000A268FFF7CDFE1D4D00262069009094E872
:100E90000F00FFF7F0FEA9680844A8606420FFF780
:100EA00025FA761C192EF0DBA868192190FBF1F0C9
:100EB00000EE100AB8EEC00A85ED030AD5ED040A6B
:100EC00080EE201A9FED0E0A85ED001A85ED010ACD
:100ED0002069009094E80F00FFF7CDFE00EE100AA5
:100EE0006420B8EEC00A85ED010AFFF7FFF9EFE7CD
:100EF0002400002000000240FBBBFB00000000209B
:100F000000000000000000000000000001020304D7
:100F100006070809340F0008000000202400000024
:100F20003A0E0008580F00082400002014040000A6
:100F30004A0E000829DC8F4200000000000000007B
:100F40000000000000003443010000001000000019
:080F5000000000000024F40081
:04000005080001C529
:00000001FF
